:200000000C94A8010C94D9010C94D9010C94D9010C94D9010C94D9010C94D9010C94D90141
:200020000C94D9010C94D9010C94D9010C94D9010C94D9010C94D9010C94D9010C94D901F0
:200040000C94D9010C94AF0E0C94D9010C94D9010C94D9010C94D9010C94D9010C94DB0DDF
:200060000C94D9010C94A50D0C947B0D0C94D9010C94D9010C94D9010C94D9010C94D9012A
:200080000C94810E0C94D9010C94D9010C94D9010C94450D0C941B0D0C94D9010C94DD0E04
:2000A0000C94D9010C94D9010C94530E0C94D9010C94D9010C94D9010C94D9010C94250E90
:2000C0000C94D9010C94D9010C94D9010C94D9010C94D9010C94D9010C94D9010C94D90150
:2000E0000C94D901084AD73B3BCE016E84BCBFFDC12F3D6C74319ABD56833DDA3D00C77FA6
:2001000011BED9E4BB4C3E916BAAAABE000000803F05A84CCDB2D44EB93836A9020C50B9C0
:20012000918688083CA6AAAA2ABE000000803F000C9430180C944B180C946B050C94C004DC
:200140000C9456180C944E090C94020C0C946A180C94AA040C944D090C94FB040C94B4058E
:200160000C94ED040C9440050C9425180C9428040C94D2050C94F1040C9432030C943903A3
:200180000C94CB040C9499030C94000A0C94DB030C94E9040C94040C0C9486180C94A114BC
:2001A0000C94D60C0C94FC090C940A180C94EC170C9487050C943A030C947D050C94D10413
:2001C0000C9438050C944F050C94D5040C948B030C94FF090C94BC040C94C4040C9463052F
:2001E0000C94DF040C943B030C94E3040C94A0050C949D090C94AB170C9470090C947703F7
:200200000C94BE050C94F7040C9473050C947B180C94A5040C94C8170C94DB040C94711825
:200220000C9422100C94E6170C9491050C94AA050C9459050C94C8050C9468030C94C804E8
:200240000C9445050C945D0900000A0B02090C0D0E08070304010000000000000000000050
:2002600000000000000000000000000000000000000000001211100000000000000000004B
:20028000000000000000000000000000000000002200250028002B002E003100340002012E
:2002A0000000050108010B0100002100240027002A002D00300033000101000004010701EE
:2002C0000A0105050505070508080808020202020A0A08080404040401010101010101018F
:2002E0000303030303030303040707070C0C0C0C0C0C0C0C02020202060606060606060635
:200300000B0B0B0B0B0B0B0B010210202008081020401020408002010201080402010102AA
:2003200004081020408080402010080402018004020180402010080402010804020101022A
:200340000408102040800102040810204080221011241FBECFEFD1E2DEBFCDBF00E00CBF19
:2003600013E0A0E0B2E0EAE2FAE400E00BBF02C007900D92AC3BB107D9F727E0ACEBB3E08C
:2003800001C01D92AA36B207E1F711E0C8EAD1E000E006C021970109802FFE010E94D72376
:2003A000C73AD10780E00807A9F70E948F110C9413250C94000090E0FC01E85FFC4F2491E7
:2003C0008E539D4FFC018491882399F090E0880F991FFC01E855FD4FA591B491FC01E25714
:2003E000FD4F859194918FB7F894EC91E22BEC938FBF0895FC01A089B18982E08C93A485A6
:20040000B5851C92A685B7858FEC8C93108EA489B58986E08C93A289B3898C9180618C93E1
:20042000A289B3898C9188608C93A289B3898C9180688C930288F389E02D80818F7D808383
:2004400008950F931F93CF93DF93C0911E07EFE1F7E0CD3211F0EEE1F7E08F0120E030E074
:20046000A901D801DD918D0180ED8D0F8A3090F4AAE0B0E00E94D41F2D2FDD0F330B440B32
:20048000550B260F371F481F591F2053310941095109E7CFA4E6B0E00E94D41FAB01BC0173
:2004A000DF01819190ED980F9A30D0F38E3259F511968C91119790ED980F9A3020F5082EE6
:2004C000000C990BC0972AE0289F8001299F100D1124012E000C220B330B400F511F621FC3
:2004E000731F12968C9190ED980F9A3060F4082E000C990BC097092E000CAA0BBB0B480F11
:20050000591F6A1F7B1FCD3239F470956095509541955F4F6F4F7F4FCB01BA01DF91CF91CE
:200520001F910F9108954F925F926F927F928F929F92AF92BF92CF92DF92EF92FF921F9370
:20054000CF93DF93CEE1D7E0FE01C12CD12C7601119180ED810F8A30A8F4AAE0B0E0A7014A
:2005600096010E94D41FC12E110FDD08EE08FF08C60ED71EE81EF91E80E3C81AD108E10871
:20058000F108E6CFC701B60124E630E040E050E00E94E71F9B01AC0160EA76E881E090E05A
:2005A0000E94BB234B015C019E01899190ED980F9A30D0F38E3221F5E901219680E1482E5A
:2005C00087E2582E612C712CA99180ED8A0F8A30B8F40A2E000CBB0BD097A30192010E9412
:2005E000DF1F860E971EA81EB91EC301B2012AE030E040E050E00E94E71F29013A01E4CF76
:20060000C701B60124E630E040E050E00E94E71F60E472E48FE090E00E94BB236B017C0167
:20062000C501B4016D5F7F4F8F4F9F4F26E030E040E050E00E94E71FC701B601620F731F49
:20064000841F951FDF91CF911F91FF90EF90DF90CF90BF90AF909F908F907F906F905F900E
:200660004F9008958091750490917604891B990B089508950895AF92BF92CF92DF92EF92D5
:20068000FF920F931F93CF93DF936C017B018B01040F151FEB015E01AE18BF08C017D1075E
:2006A00059F06991D601ED91FC910190F081E02DC6011995892B79F7C501DF91CF911F9127
:2006C0000F91FF90EF90DF90CF90BF90AF900895FC01538D448D252F30E0842F90E0821BA1
:2006E000930B541710F0CF96089501970895FC01918D828D981761F0A28DAE0FBF2FB11DE8
:200700005D968C91928D9F5F9F73928F90E008958FEF9FEF0895FC01918D828D981731F0C9
:20072000828DE80FF11D858D90E008958FEF9FEF0895FC01918D228D892F90E0805C9F4F21
:20074000821B91098F739927089587EE94E00E94990321E0892B09F420E0822F089584E870
:2007600095E00E94990321E0892B09F420E0822F0895FC01A48DA80FB92FB11DA35ABF4F20
:200780002C91848D90E001968F739927848FA689B7892C93A089B1898C91837080648C930B
:2007A000938D848D981306C00288F389E02D80818F7D80830895EF92FF920F931F93CF930F
:2007C000DF93EC0181E0888F9B8D8C8D98131AC0E889F989808185FF15C09FB7F894EE89D6
:2007E000FF896083E889F98980818370806480839FBF81E090E0DF91CF911F910F91FF90E2
:20080000EF900895F62E0B8D10E00F5F1F4F0F731127E02E8C8D8E110CC00FB607FCFACF57
:20082000E889F989808185FFF5CFCE010E94B903F1CFEB8DEC0FFD2FF11DE35AFF4FF082E5
:200840009FB7F8940B8FEA89FB8980818062CFCFCF93DF93EC01888D8823B9F0AA89BB8903
:20086000E889F9898C9185FD03C0808186FD0DC00FB607FCF7CF8C9185FFF2CF808185FF5D
:20088000EDCFCE010E94B903E9CFDF91CF91089580E090E0892B29F00E94AF0381110E9425
:2008A000000080E090E0892B29F00E94A50381110E94000080E090E0892B49F080E090E090
:2008C000892B29F00E94000081110E94000080E090E0892B49F080E090E0892B29F00E9479
:2008E000000081110C9400000895282F30E0F901E85BFD4F9491F901E85FFC4F44912E5332
:200900003D4FF9012491222309F435C0992311F191509231F8F4E92FF0E08827ED56FB4FF3
:200920008F4F0C94D723C404C804A504BC04C004AA04CB04D104D504DB04DF04E304E904BD
:20094000ED04AA04F104F704FB04809180008F7780938000E22FF0E0EE0FFF1FE257FD4F5E
:20096000A591B4918FB7F894EC91611148C040954E234C938FBF0895809180008F7DE8CFCF
:2009800080918000877FE4CF84B58F7784BDE2CF84B58F7DFBCF8091B0008F778093B00043
:2009A000D9CF8091B0008F7DF9CF809190008F7780939000CFCF809190008F7DF9CF80918C
:2009C0009000877FF5CF8091A0008F778093A000C1CF8091A0008F7DF9CF8091A000877F87
:2009E000F5CF809120018F7780932001B3CF809120018F7DF9CF80912001877FF5CF4E2BCA
:200A0000B8CF1F93CF93DF93182FEB010E94DB01209739F460E0812FDF91CF911F910C9424
:200A20007504CF3FD10511F461E0F5CFE12FF0E0E85BFD4FE491E150E23108F0B3C0F0E0EC
:200A40008827EA5DFA4F8F4F0C94D7233805400545054F055905D20563056B0573057D05B8
:200A600087059105A005AA05D205B405BE05C80584B5806884BDC7BDDF91CF911F910895DD
:200A800084B5806284BDC8BDF7CF80918000806880938000D0938900C0938800EDCF80910F
:200AA0008000806280938000D0938B00C0938A00E3CF80918000886080938000D0938D00C8
:200AC000C0938C00D9CF8091B00080688093B000C093B300D1CF8091B00080628093B00017
:200AE000C093B400C9CF80919000806880939000D0939900C0939800BFCF80919000806233
:200B000080939000D0939B00C0939A00B5CF80919000886080939000D0939D00C0939C00A8
:200B2000ABCF8091A00080688093A0008091A0008F7B8093A000D093A900C093A8009CCF0F
:200B40008091A00080628093A000D093AB00C093AA0092CF8091A00088608093A000D09334
:200B6000AD00C093AC0088CF80912001806880932001D0932901C09328017ECF809120019C
:200B8000806280932001D0932B01C0932A0174CF80912001886080932001D0932D01C093BD
:200BA0002C016ACFC038D1050CF03ECF33CF3FB7F8948091050490910604A0910704B091B2
:200BC000080426B5A89B05C02F3F19F00196A11DB11D3FBFBA2FA92F982F8827BC01CD01CC
:200BE000620F711D811D911D42E0660F771F881F991F4A95D1F708958F929F92AF92BF92F6
:200C0000CF92DF92EF92FF926B017C010E94D7054B015C01C114D104E104F104B9F00E9411
:200C2000D705681979098A099B09683E73408105910580F321E0C21AD108E108F10888EEA8
:200C4000880E83E0981EA11CB11CE4CFFF90EF90DF90CF90BF90AF909F908F900895CF93F1
:200C6000DF93EC0161E088810E94750461E08A810E94750470E060E08C81DF91CF910C943C
:200C80000105EF92FF920F931F93CF93DF93EC017B0161E088850E9475048E819F81E89E8D
:200CA0008001E99E100DF89E100D112417FD12C061E088810E94750460E08A810E94750476
:200CC000B8018C81DF91CF911F910F91FF90EF900C94010560E088810E94750461E08A81CA
:200CE0000E94750466277727601B710BEACFAF92BF92CF92DF92EF92FF920F931F93CF93D2
:200D0000DF936B017A01EC01C050DC4F28813CE0389F8001399F100D1124A090BD06B12C3B
:200D200027FF1FC0FB011182108288818F5F888388819801280F311D87FD3A95F6012A15DB
:200D40003B051CF488818C30C4F180819181049680349C4908F473C0F601808191810496B0
:200D600070C088819801280F311D87FD3A952A153B05DCF68881A801480F511D87FD5A958E
:200D8000FA01EE0FFF1FE40FF51FE35DF94F808186FFCBCF8881F801E80FF11D87FDFA9574
:200DA000CF01EE0FFF1FE80FF91FE35DF94F808160E08F730E947504B8CF80819181288110
:200DC000A801420F511D27FD5A959A01FA01EE0FFF1FE20FF31FE35DF94F21813281820F76
:200DE000931FF7019183808388819801280F311D87FD3A95F901EE0FFF1FE20FF31FE35D60
:200E0000F94F808186FF22C08881080F111D87FD1A95F801EE0FFF1FE00FF11FE35DF94F06
:200E2000808161E08F73DF91CF911F910F91FF90EF90DF90CF90BF90AF900C94750480E467
:200E40009CE9F701918380838FEF8883DF91CF911F910F91FF90EF90DF90CF90BF90AF90EB
:200E600008952091DD03260F3327331F21323105ECF42091BD04FC0190E080E0243069F00E
:200E800082E00895A091DD032191AC0143545C4FA40FB52FB11D2C930196861798F38091AD
:200EA000DD03680F6093DD0380E0089581E008951092BD0481E08093BC041092970461E0F8
:200EC00084E10E94750461E085E10E947504E9EBF0E080818E7F808380818D7F808388E49F
:200EE0008093B80085E48093BC000895CF93DF9391E09093BC038823B9F0C091B800D0916D
:200F0000BA008091BC008A7B8093BC0060E084E10E94750460E085E10E9475040E945807F4
:200F2000D093BA00C093B800DF91CF910895CF92DF92EF92FF920F931F93CF93DF93D091AF
:200F4000E60481E0D13208F09CC0C091E5040E94D7056B017C018091BD0481116CC082E05C
:200F60008093BD0481E08093BC048FEF8093BB041092BA04D093B904A5ECB4E0E9E9F4E0CE
:200F800080E0D8138DC01092980480919804CC0FC82BC093980480919704813009F084C077
:200FA000109297040E94D7056B017C01809198048093BB008091BF049091C004A091C10463
:200FC000B091C204892B8A2B8B2BA1F00E94D7050091BF041091C0042091C1043091C20426
:200FE0006C197D098E099F09061717072807390708F442C08091BC0083FDD8CF85EC809387
:20100000BC000E94D7056B017C018091BD04823009F44CC08091BB048F3F09F469C080914B
:20102000BB04803209F466C08091BB04803309F463C084E026C08091BF049091C004A09145
:20104000C104B091C204892B8A2B8B2B09F483CF0E94D7050091BF041091C0042091C104A9
:201060003091C2046C197D098E099F09061717072807390708F06FCF8091BE040E947607CD
:2010800085E01092C4041092E6041092C304DF91CF911F910F91FF90EF90DF90CF900895F3
:2010A0009D9191938F5F6DCF85EEA9CF8091BF049091C004A091C104B091C204892B8A2BAA
:2010C0008B2B09F4A2CF0E94D7050091BF041091C0042091C1043091C2046C197D098E0916
:2010E0009F09061717072807390708F08ECFC4CF80E0C7CF82E0C5CF83E0C3CFCF92DF9203
:20110000EF92FF920F931F93CF93DF93D82FC62F613208F098C00E94D7056B017C0180913E
:20112000BD0481116BC081E08093BD048093BC049FEF9093BB041092BA049C0F9093B904CE
:201140008093980480919804DD0FD82BD093980480919704813009F078C0109297040E94D8
:20116000D7056B017C01809198048093BB008091BF049091C004A091C104B091C204892BC5
:201180008A2B8B2BA1F00E94D7050091BF041091C0042091C1043091C2046C197D098E097D
:2011A0009F09061717072807390708F448C08091BC0083FDD8CF85EC8093BC000E94D70527
:2011C0006B017C018091BD04813009F440C08091BA048C1710F4C091BA04E9E9F4E0A7E7ED
:2011E000B4E080E08C1355C08C2FDF91CF911F910F91FF90EF90DF90CF9008958091BF041F
:201200009091C004A091C104B091C204892B8A2B8B2B09F484CF0E94D7050091BF0410910A
:20122000C0042091C1043091C2046C197D098E099F09061717072807390708F070CF8091B1
:20124000BE040E947607C0E0CFCF85EEB5CF8091BF049091C004A091C104B091C204892B0E
:201260008A2B8B2B09F4AECF0E94D7050091BF041091C0042091C1043091C2046C197D094A
:201280008E099F09061717072807390708F09ACFD6CF91919D938F5FA5CF0895E091760423
:2012A00080917504E81730F4F0E0E958FB4F808190E008958FEF9FEF0895909176048091C3
:2012C00075042FEF3FEF981748F4E92FF0E0E958FB4F208130E09F5F90937604C901089538
:2012E000CF92DF92EF92FF920F931F93CF93DF937C01CB018A012091C304222389F0EB01EC
:201300006B01C40ED51ECC15DD0569F06991D701ED91FC910190F081E02DC7011995F3CF5C
:20132000642F0E943107C801DF91CF911F910F91FF90EF90DF90CF900895CF93DF931F9259
:20134000CDB7DEB769832091C3042223F9F02091E604203258F021E030E0FC013383228344
:2013600090E080E00F90DF91CF9108958091C404E82FF0E0EB53FB4F998190838F5F80931B
:20138000C4048093E60481E090E0ECCF61E0CE0101960E943107F7CFCF93C62F9091C10676
:2013A00021E02093C3049093E5041092C4041092E604682F81E296E00E949D096C2F81E2FA
:2013C00096E00E949D090E94970781E0CF910895EEEBF6E080879187682F8DE390E00E94CA
:2013E000CC096EE170E080E090E00C94FC05682F81E296E00C949D0990E080E00895089548
:201400000895FC0101900020E9F73197AF01481B590BBC0184E895E00C943B038F929F9294
:20142000AF92BF920F931F93CF93DF93CDB7DEB7A1970FB6F894DEBF0FBECDBF19A242302D
:2014400008F44AE08E010F5D1F4F842E912CB12CA12CA50194010E94E71FE62FB901CA0167
:20146000EA30F4F4E05DD801EE938D01232B242B252B79F790E080E0109719F0CD010E94F8
:20148000010AA1960FB6F894DEBF0FBECDBFDF91CF911F910F91BF90AF909F908F9008952A
:2014A000E95CE1CFCF92DF92EF92FF92CF93DF936B017C016DE284E895E00E94DB03EC01F9
:2014C00066277727CB016C197D098E099F094AE00E940E0A8C0F9D1FDF91CF91FF90EF90B2
:2014E000DF90CF900895CF93DF930E94010AEC0180E592E00E94010A8C0F9D1FDF91CF9168
:201500000895CF93C62F91E09093C30492E69093E5041092C4041092E604082E000C990B1C
:201520000E94F7098C2FCC0F990B0E94F7090E949707882321F083E592E00E94730A61E0F7
:2015400070E080E090E0CF910C94FC05CF93DF93CEEBD6E08B8191E09093C3048093E504C4
:201560001092C4041092E60460E081E296E00E949D090E94970761E08B810E947E081092BD
:2015800076048093750481E296E00E945D09DF91CF91089560E882E00E94810A68E084E074
:2015A0000E94810A60E08CE10C94810ACF93DF93BC01990F880B990B97FF0CC00E94520A56
:2015C000EC0180E592E00E94010A8C0F9D1FDF91CF9108954AE00E940E0AF2CF4F925F925F
:2015E0006F927F928F929F92AF92BF92CF92DF92EF92FF920F931F93CF936B017C01742ED0
:20160000AC019B010E948D23882399F08AE592E0CF911F910F91FF90EF90DF90CF90BF903F
:20162000AF909F908F907F906F905F904F900C94010A46015701E894B7F82FEF3FEF4FE74A
:201640005FE7C501B4010E948D2381110DC02FEF3FEF4FE75FE7C501B4010E94F7201816EE
:201660001CF48EE592E0D4CF2FEF3FEF4FE75FE4C701B6010E94C12218161CF482E692E0F1
:20168000C7CF2FEF3FEF4FE75FECC701B6010E94F72087FDF3CF20E030E0A901C701B60130
:2016A0000E94F72010E000E087FF0AC06DE284E895E00E94DB038C01F7FAF094F7F8F0942C
:2016C000C0E060E070E080E09FE37C1641F020E030E040E251E40E940121CF5FF6CFA7016F
:2016E00096010E9419202B013C010E947A214B015C014AE00E940E0A7C01E00EF11ECC23DC
:20170000C1F1C501B4010E94A9219B01AC01C301B2010E9418204B015C016EE284E895E0BC
:201720000E94DB03E80EF91EC15018F120E030E040E251E4C501B4010E94CE222B013C0125
:201740000E947A214B01B12CA12C4AE0C501B4010E940E0AE80EF91EC501B4010E94A92103
:201760009B01AC01C301B2010E9418204B015C01DBCFC701CF911F910F91FF90EF90DF9087
:20178000CF90BF90AF909F908F907F906F905F904F90089585ED8093BC008091BF0490915F
:2017A000C004A091C104B091C2040796A11DB11D23E0B695A795979587952A95D1F7209135
:2017C000BC0024FD03C01092BD0408954091BF045091C0046091C1047091C204452B462BD2
:2017E000472B69F30097A105B10541F025E32A95F1F700000197A109B109E1CF8091BE04C9
:201800000C9476070C947B248F929F92AF92BF92CF92DF92EF92FF920F931F93CF93DF937C
:20182000CDB7DEB762970FB6F894DEBF0FBECDBF6C018B01FB01349680E2DF011D928A9580
:20184000E9F784E290E0A0E0B0E0FB0180839183A283B383F60184819581A681B781FB01E7
:2018600084839583A683B78383E090E0A0E0B0E080879187A287B3872FB7F89480910D04ED
:2018800090910E04A0910F04B09110042FBF808B918BA28BB38B8CE0FE013196DF011D923B
:2018A0008A95E9F77E01BDE0EB0EF11C86E0F70111928A95E9F7D60113968C9191E09093D6
:2018C000C3048093E5041092C4041092E6046AE181E296E00E949D090E94970766E0F60166
:2018E00083810E947E0810927604809375048630F0F36E01F3E1CF0ED11C81E296E00E94F3
:201900005D09D7018D937D01AC15BD05B1F76D857E85072E000C880B990B0E94AB2120E0E5
:2019200030E040E85DE30E94CE224B015C016F857889072E000C880B990B0E94AB2120E019
:2019400030E040E85DE30E94CE226B017C0169897A89072E000C880B990B0E94AB2120E0B9
:2019600030E040E85DE30E94CE22F801848A958AA68AB78AC08ED18EE28EF38E648F758F31
:20198000868F978F81E062960FB6F894DEBF0FBECDBFDF91CF911F910F91FF90EF90DF90CF
:2019A000CF90BF90AF909F908F9008950F931F93CF93DF938C01EB0188E2FB0111928A9586
:2019C000E9F74BE050E066E672E0CE010E9404251B8681E090E0A0E0B0E08C879D87AE87A6
:2019E000BF87F80184819581A681B781888B998BAA8BBB8B83E090E0A0E0B0E08C8B9D8B5A
:201A0000AE8BBF8B1CA21DA21EA21FA2188E198E1A8E1B8E1C8E1D8E1E8E1F8E8AE097ED0B
:201A2000A3E2BCE388A399A3AAA3BBA3DF91CF911F910F9108951F920F920FB60F921124C6
:201A40000BB60F922F933F934F935F936F937F938F939F93AF93BF93EF93FF9387EE94E0C3
:201A60000E94B903FF91EF91BF91AF919F918F917F916F915F914F913F912F910F900BBE40
:201A80000F900FBE0F901F9018951F920F920FB60F9211240BB60F922F938F939F93EF93F8
:201AA000FF93E091F704F091F8048081E091FD04F091FE0482FD1DC09081809100058F5F44
:201AC0008F7320910105821741F0E0910005F0E0E951FB4F958F80930005FF91EF919F913D
:201AE0008F912F910F900BBE0F900FBE0F901F9018958081F2CF1F920F920FB60F92112488
:201B00000BB60F922F933F934F935F936F937F938F939F93AF93BF93EF93FF9384E895E00A
:201B20000E94B903FF91EF91BF91AF919F918F917F916F915F914F913F912F910F900BBE7F
:201B40000F900FBE0F901F9018951F920F920FB60F9211240BB60F922F938F939F93EF9337
:201B6000FF93E0919405F09195058081E0919A05F0919B0582FD1DC0908180919D058F5F6E
:201B80008F7320919E05821741F0E0919D05F0E0EC57FA4F958F80939D05FF91EF919F919D
:201BA0008F912F910F900BBE0F900FBE0F901F9018958081F2CF1F920F920FB60F921124C7
:201BC0002F933F938F939F93AF93BF9380910D0490910E04A0910F04B091100430910404D2
:201BE00023E0230F2D3758F50196A11DB11D2093040480930D0490930E04A0930F04B0933F
:201C000010048091050490910604A0910704B09108040196A11DB11D809305049093060476
:201C2000A0930704B0930804BF91AF919F918F913F912F910F900FBE0F901F90189526E832
:201C4000230F0296A11DB11DD2CF1F920F920FB60F9211240BB60F922F933F934F935F93D6
:201C60006F937F938F939F93AF93BF93EF93FF9348E251E064E271E090E080E00E94770673
:201C8000FF91EF91BF91AF919F918F917F916F915F914F913F912F910F900BBE0F900FBE10
:201CA0000F901F9018951F920F920FB60F9211240BB60F922F933F934F935F936F937F935E
:201CC0008F939F93AF93BF93EF93FF9348EA50E064EA70E083E090E00E947706FF91EF9106
:201CE000BF91AF919F918F917F916F915F914F913F912F910F900BBE0F900FBE0F901F9072
:201D000018951F920F920FB60F9211240BB60F922F933F934F935F936F937F938F939F93F7
:201D2000AF93BF93EF93FF9348E950E064E970E082E090E00E947706FF91EF91BF91AF916C
:201D40009F918F917F916F915F914F913F912F910F900BBE0F900FBE0F901F9018951F9243
:201D60000F920FB60F9211240BB60F922F933F934F935F936F937F938F939F93AF93BF9361
:201D8000EF93FF9348E850E064E870E081E090E00E947706FF91EF91BF91AF919F918F9153
:201DA0007F916F915F914F913F912F910F900BBE0F900FBE0F901F9018951F920F920FB6CD
:201DC0000F9211240BB60F922F933F934F935F936F937F938F939F93AF93BF93EF93FF9353
:201DE0008091B900887F803609F44DC008F040C0883209F4A9C028F5803109F49DC0C8F456
:201E0000882309F4FBC0883009F496C0FF91EF91BF91AF919F918F917F916F915F914F9184
:201E20003F912F910F900BBE0F900FBE0F901F901895883109F488C0803241F78093BB0489
:201E400014C0803409F49DC040F48033B9F38833E9F68093BB0485ECB0C0803509F485C0C9
:201E6000883509F496C0883489F60E94CA0BCECF883909F48CC038F5883729F050F48836F2
:201E800011F0803719F683E08093BD041092FF0357C0883809F47BC0803919F0803809F01E
:201EA000B5CF8091FF03803208F071C0E091FF0381E08E0F8093FF038091BB00F0E0E1525B
:201EC000FC4F80833DC0803B39F0E0F4803A09F479C0883A09F09ACF84E08093BD04109211
:201EE000DE031092DD03E0910B04F0910C0419958091DD0381110FC081E08093DD03109278
:201F0000BD0309C0803C09F4A6CF883C09F4A3CF883B09F07BCFE091DE0381E08E0F80936E
:201F2000DE03F0E0E354FC4F80818093BB009091DE038091DD0329C0809198048093BB0048
:201F400085EC8093BC0062CF9091BA048091B904981758F5E091BA0481E08E0F8093BA0469
:201F6000F0E0E756FB4F8081E9CFE091BA0481E08E0F8093BA048091BB00F0E0E756FB4F30
:201F800080839091BA048091B9049817C8F285E8D8CFE091BA0481E08E0F8093BA04809105
:201FA000BB00F0E0E756FB4F80838091BC0481115CCF81E08093970484EA8093BC00109290
:201FC000BD0424CF85EC8093BC001092BD048091FF03803230F4E091FF03F0E0E152FC4F00
:201FE00010826091FF0370E0E0910904F0910A048FED93E019951092FF0308CF1092BB0486
:2020000034CF0F931F93CF93DF93EC01862F688379835B834A833D832C831987088721E0C2
:2020200030E03F832E830E94DB018A810E94DB018C810E94DB018885DF91CF911F910F915E
:202040000C94DB010F931F931092EA041092E90488EE93E0A0E0B0E08093EB049093EC0483
:20206000A093ED04B093EE0422E232E03093E8042093E7044DEC50E05093F4044093F30496
:202080004CEC50E05093F6044093F50448EC50E05093F8044093F70449EC50E05093FA04D8
:2020A0004093F9044AEC50E05093FC044093FB044EEC50E05093FE044093FD04109200056B
:2020C00010920105109202051092030510928705109286058093880590938905A0938A0597
:2020E000B0938B05309385052093840525EC30E0309391052093900524EC30E03093930547
:202100002093920520EC30E0309395052093940521EC30E0309397052093960522EC30E0C8
:20212000309399052093980526EC30E030939B0520939A0510929D0510929E0510929F0548
:202140001092A00510922406109223068093250690932606A0932706B093280684E392E06A
:20216000909322068093210609E010E025E030E044E050E062E070E08CE597E00E9401106B
:2021800026E030E048E050E067E070E082E597E00E9401100FE010E02BE030E04CE050E053
:2021A0006DE070E088E497E00E94011023E030E04EE050E06AE070E08EE397E00E94011046
:2021C0008091BD06803308F0A6C091E0980F9093BD0680933B0790E0FC01EE0FFF1FE80F48
:2021E000F91FE35DF94F88EB9BE0928381834FEF5FEFBA014093C8065093C9066093CA06DB
:202200007093CB061092D0061092D1061092D2061092D3068FEF99ECAAE9BBE38093D806DF
:202220009093D906A093DA06B093DB068093E0069093E106A093E206B093E3068093E8061A
:202240009093E906A093EA06B093EB068093F0069093F106A093F206B093F3068093F8067A
:202260009093F906A093FA06B093FB06409300075093010760930207709303078FEF90E009
:20228000909309078093080740930C0750930D0760930E0770930F074093140750931507FE
:2022A000609316077093170710921C0710921D0782E080932D0710922E0710922F07109268
:2022C000300710923107109232071092330710923407109236071092350710923807109219
:2022E000370710921E0786E492E09093BF068093BE0687E390E0A0E0B0E08093C206909356
:20230000C306A093C406B093C50688E28093C1061F910F9108958FEF80933B0768CFCF934C
:20232000DF93CDB7DEB7CA56D2400FB6F894DEBF0FBECDBF789484B5826084BD84B5816017
:2023400084BD85B5826085BD85B5816085BD80916E00816080936E001092810080918100EB
:2023600082608093810080918100816080938100809180008160809380008091B100846035
:202380008093B1008091B00081608093B00080919100826080939100809191008160809356
:2023A0009100809190008160809390008091A10082608093A1008091A10081608093A100D8
:2023C0008091A00081608093A0008091210182608093210180912101816080932101809114
:2023E000200181608093200180917A00846080937A0080917A00826080937A0080917A0026
:20240000816080937A0080917A00806880937A001092C10084E895E00E94FA011092760451
:20242000109275041092C4041092E6040E94580789E393E090930C0480930B048AE393E076
:2024400090930A04809309041CE01093B8000E94CA0A0E94CA0A80913B07803308F050C0DA
:2024600086E10E94DB0180913B07282F30E0F901EE0FFF1FE20FF31FE35DF94F9081907C00
:202480009661908310923C0710923D07612F0E94CB23819FB001112430E020E0AB01420F34
:2024A000531FFA01EE0FFF1FE40FF51FE35DF94F908196FD17C02F5F3F4F2C30310571F774
:2024C000813009F05AC01092800082E0809381001092850010928400B19A80916F00826026
:2024E00080936F00E0913B078E2F90E0FC01EE0FFF1FE80FF91FE35DF94F808180648083E3
:2025000084E895E00E94FA018DE692E00E94730A87EE94E00E94FA0186E892E00E94730AB4
:2025200082E592E00E94730A10927604109275041092C4041092E6040E94580789E393E096
:2025400090930C0480930B048AE393E090930A04809309040E94A60A803AD9F168EE73E076
:2025600080E090E00E94FC050E94A60A803A89F185EA92E00E94010AFFCF823061F410925D
:20258000900080939100109295001092940088BB80937100A7CF833069F41092A00082E0A9
:2025A0008093A1001092A5001092A40089BB8093720098CF811196CF1092200182E080937B
:2025C000210110922501109224018ABB8093730089CF90E080E00E94E80960E28FE390E0A0
:2025E0000E94CC090E94A60A803A39F06AE070E080E090E00E94FC05F5CF62E370E080E069
:2026000090E00E94FC0560E08EE390E00E94CC096AE070E080E090E00E94FC0560E087E05B
:2026200090E00E94CC0960E08FE390E00E94CC096AE070E080E090E00E94FC058CE090E031
:202640000E94E80964E170E080E090E00E94FC0586E1E8E0F2E0DE01119601900D928A9509
:20266000E1F7A090C606B090C70690E080E00E94E80969E170E080E090E00E94FC058E017A
:202680000F5F1F4F25E5E22EF12CF801D1908F016D2D70E090E080E04AE00E940E0A80E53A
:2026A00092E00E94010A6D2DC7010E94CC09FFEFEF1AFF0A2BE6E216F10439F7C5010E948C
:2026C000E80969E170E080E090E00E94FC0568EE73E080E090E00E94FC050091C6061091E2
:2026E000C70690E080E00E94E80969E170E080E090E00E94FC0560E087E090E00E94CC090F
:2027000060E88FE390E00E94CC096AE070E080E090E00E94FC05C8010E94E80964E170E01A
:2027200080E090E00E94FC05BE016F5F7F4F8EEB96E00E94040C812C912C540112E0CC2489
:20274000C39487EE94E00E949903CB5ADD4F99838883C555D240892B09F49EC687EE94E059
:202760000E947703082F8091310790913207A0913307B09134070196A11DB11D809331070E
:2027800090933207A0933307B0933407043209F4C8C4E0912F0705324CF40A3019F00D3095
:2027A00009F0CCC4EF3068F0E12CCBC00A32D1F30C3209F0C3C480911C07802780931C07B2
:2027C000F1CF80912E07F0E0E25EF84F1082E0901D07EE2009F45CC320911E07822F022E95
:2027E000000C990B3FEB320F363008F0DDC2C7978295807F90911F07292F092E000C330B2D
:202800004FEB490F463008F0D7C227533109820F90911C07891332C3E0903007EE2021F23D
:202820008091350790913607019690933607809335078091100790911107A0911207B091BB
:20284000130780930C0790930D07A0930E07B0930F078091180790911907A0911A07B0915C
:202860001B078093140790931507A0931607B093170780912D07882309F4A7C2813009F018
:2028800060C08091CC069091CD06A091CE06B091CF068093C8069093C906A093CA06B0930D
:2028A000CB068091D4069091D506A091D606B091D7068093D0069093D106A093D206B09304
:2028C000D3068091DC069091DD06A091DE06B091DF068093D8069093D906A093DA06B093A4
:2028E000DB068091E4069091E506A091E606B091E7068093E0069093E106A093E206B09344
:20290000E3068091F4069091F506A091F606B091F7068093F0069093F106A093F206B093AB
:20292000F3068091FC069091FD06A091FE06B091FF068093F8069093F906A093FA06B09343
:20294000FB0680912E078F5F80932E0710922F0781E00A3209F080E080931D07EE2009F4EA
:20296000F0CEC090D806D090D906E090DA06F090DB068090E0069090E106A090E206B09026
:20298000E30660E070E08AE794E43FEFC31639ECD3063AE9E3063BE3F30651F0C701B601ED
:2029A0000E94AB2120E034E244E759E40E9401216093710470937204809373049093740461
:2029C0008FEFC81689ECD8068AE9E8068BE3F80609F4C9C3C501B4010E94AB2120E034E2F3
:2029E00044E759E40E94012160936D0470936E0480936F04909370048EEE92E00E94010A1A
:202A000089EF92E00E94010A6091710470917204809173049091740446E00E94EE0A409091
:202A20006D0450906E0460906F04709070042FE334EA42EF52E4C301B2010E94192025E30B
:202A40003AEF4EE85CE30E94CE226B017C010E943B23C959DD4F688379838A839B83C756E0
:202A6000D240C701B6010E94FC20CB5ADD4F688379838A839B83C555D24025E33AEF4EE811
:202A80005CE3609171047091720480917304909174040E94CE226B017C010E943B23C75A5D
:202AA000DD4F688379838A839B83C955D240C701B6010E94FC206B017C0126E936E84DE127
:202AC0005FE30E94CE22C35ADD4F688379838A839B83CD55D2402AEC3BEC49E45FE3C75AC6
:202AE000DD4F688179818A819B81C955D2400E94CE22CF59DD4F688379838A839B83C15661
:202B0000D2409B01AC01CB5ADD4F688179818A819B81C555D2400E94CE229B01AC01C35ADB
:202B2000DD4F688179818A819B81CD55D2400E9418209B01AC010E94CE224B015C012AECB7
:202B40003BEC49E45FE3C959DD4F688179818A819B81C756D2400E94CE229B01AC010E94DB
:202B6000CE22A50194010E9419200E9449234B015C012AEC3BEC49E45FE3C701B6010E94CB
:202B8000CE22CB5ADD4F288139814A815B81C555D2400E94CE226B017C0126E936E84DE1E8
:202BA0005FE3C75ADD4F688179818A819B81C955D2400E94CE229B01AC01C701B6010E9450
:202BC00019209B01AC01C501B4010E94982026E73BE742EC5AE40E94CE226B017C01C09236
:202BE0006904D0926A04E0926B04F0926C04A30192016FE374EA82EF92EC0E94182025E30D
:202C00003AEF4EE85CE30E94CE224B015C010E943B232B013C01C501B4010E94FC20CF5911
:202C2000DD4F288139814A815B81C156D2400E94CE229B01AC01C35ADD4F688179818A8123
:202C40009B81CD55D2400E9418204B015C012AEC3BEC49E45FE3C301B2010E94CE22A50146
:202C600094010E9498204B015C0120E030E0A9010E94F72087FF0AC02BED3FE049EC50E459
:202C8000C501B4010E9419204B015C014D885E886F88788C64E670E080E090E00E94FC0572
:202CA00021EE3EE245E652E4C501B4010E94CE22A30192010E9418204B015C0120E030E0AD
:202CC00040E850E4C701B6010E94C12218160CF035CD20E030E044E353ECC501B4010E94D5
:202CE000F72087FF45C28AE0E2E5F7E0DE01A55BBD4F01900D928A95E1F78AE0EEE3F7E004
:202D0000DE01AF5BBD4F01900D928A95E1F78AE0ECE5F7E0DE01A95CBD4F01900D928A9546
:202D2000E1F78AE0E8E4F7E0DE01A35DBD4F01900D928A95E1F760E870E0CE01855B9D4F69
:202D40000E94410660E870E0CE018F5B9D4F0E94410660E87FEFCE01895C9D4F0E94410625
:202D600060E87FEFCE01835D9D4F0E94410620E030E044EB53E4C501B4010E94192020E04D
:202D800030E041EE55E40E94CE2220E030E044EB53E40E9401210E947A210E94FC0584E0AB
:202DA00093E00E94730ACACC2156263018F4875591091ECDC0971CCD9156963018F427553C
:202DC000310925CD2053310922CD8091EC069091ED06A091EE06B091EF068093E806909395
:202DE000E906A093EA06B093EB068091CC069091CD06A091CE06B091CF068093C806909397
:202E0000C906A093CA06B093CB068091DC069091DD06A091DE06B091DF068093D806909386
:202E2000D906A093DA06B093DB068091E4069091E506A091E606B091E7068093E00690930E
:202E4000E106A093E206B093E30680910A0790910B0790930907809308078091040790915D
:202E60000507A0910607B09107078093000790930107A0930207B093030763CD809137076C
:202E800090913807019690933807809337078CCC81111EC0AEE1B7E042EE52E09D01F901A0
:202EA00081919F01882311F40C94871FFA019191AF018917A1F3E8EEF2E08D91882311F4F3
:202EC0000C948B1F91918917C1F310932D0739CDE0912D07E23009F467CC90911E0799236C
:202EE00009F462CC20E2E29FF0011124E82B3197E932F10508F025CD8827EE57F84E8F4F10
:202F00000C94D723C817EC170A18251830186A1871187B188618A114A114A114A114A114C9
:202F2000A114A114A114A114A114A114A114A114A114A114A114A114A114A114A114A11441
:202F4000A114A114C817E617EC170A18251830184B185618AB17EEE1F7E020E030E0A9018E
:202F6000D19080ED8D0D8A3008F0ABC0AAE0B0E00E94D41F2D2DDD0C330B440B550B260FB8
:202F8000371F481F591F2053310941095109E8CF0E9421026093CC067093CD068093CE06AD
:202FA0009093CF062FB7F89480910D0490910E04A0910F04B09110042FBF8093100790937E
:202FC0001107A0931207B0931307BBCC81E0913409F484C080E082C00E9493026093DC0694
:202FE0007093DD068093DE069093DF062FB7F89480910D0490910E04A0910F04B09110048C
:203000002FBF8093180790931907A0931A07B0931B0797CC933509F0C7CB8091DC069091CA
:20302000DD06A091DE06B091DF06B095A095909581959F4FAF4FBF4F8093DC069093DD06C8
:20304000A093DE06B093DF067CCC0E9493026093E4067093E5068093E6069093E70671CC9B
:20306000973509F0A1CB8091E4069091E506A091E606B091E706B095A095909581959F4F2A
:20308000AF4FBF4F8093E4069093E506A093E606B093E70656CC0E9421026093F4067093F3
:2030A000F5068093F6069093F7064BCC0E9421026093FC067093FD068093FE069093FF06D0
:2030C00040CC2093D4063093D5064093D6065093D70637CC81E091330CF47CCF809330078D
:2030E00030CC8EE197E00E948F1F992790930B0780930A0726CC0E942102609304077093CD
:20310000050780930607909307071BCC0E9421026093EC067093ED068093EE069093EF06AC
:2031200010CC10922F0710922E0710921C0710932D0710921D071092300703CBEE3040F4A9
:2031400081E08E0F80932F07F0E0E25EF84F008380911D078111F5CA80911C07F82EF02658
:20316000F0921C07EECA60E070E08AE794E43CCC20E030E044E353ECC501B4010E94C122FB
:2031800087FD64C020E030E040EA50ECC501B4010E94F72087FF5AC08AE0E2E5F7E0DE0156
:2031A000AD5DBD4F01900D928A95E1F78AE0EEE3F7E0DE01A75EBD4F01900D928A95E1F7A9
:2031C0008AE0ECE5F7E0DE01A15FBD4F01900D928A95E1F78AE0E8E4F7E0DE01AB5FBD4FC9
:2031E00001900D928A95E1F760E87FEFCE018D5D9D4F0E94410660E87FEFCE01875E9D4F0E
:203200000E94410660E870E0CE01815F9D4F0E94410660E870E0CE018B5F9D4F0E94410683
:2032200020E030E041EE55E4C501B4019F770E94CE2220E030E044EB53E40E9401210E9417
:203240007A210E94FC0581E193E0ABCD20E030E040EA50E4C501B4010E94C12218160CF04B
:2032600064C020E030E044E353E4C501B4010E94F72018160CF459C08AE0E2E5F7E0DE015A
:20328000A550BE4F01900D928A95E1F78AE0EEE3F7E0DE01AF50BE4F01900D928A95E1F7E1
:2032A0008AE0ECE5F7E0DE01A951BE4F01900D928A95E1F78AE0E8E4F7E0DE01A352BE4F01
:2032C00001900D928A95E1F760E870E0CE0185509E4F0E94410660E870E0CE018F509E4F82
:2032E0000E94410660E87FEFCE0189519E4F0E94410660E87FEFCE0183529E4F0E94410680
:2033000020E030E041EE55E4C501B4010E94CE2220E030E044EB53E40E9401210E947A21B1
:203320000E94FC058BE193E03CCD20E030E044E353E4C501B4010E94C12218160CF05FC04B
:203340008AE0E2E5F7E0DE01AD52BE4F01900D928A95E1F78AE0EEE3F7E0DE01A753BE4F5B
:2033600001900D928A95E1F78AE0ECE5F7E0DE01A154BE4F01900D928A95E1F78AE0E8E4D6
:20338000F7E0DE01AB54BE4F01900D928A95E1F760E87FEFCE018D529E4F0E94410660E8C2
:2033A0007FEFCE0187539E4F0E94410660E870E0CE0181549E4F0E94410660E870E0CE01A7
:2033C0008B549E4F0E944106A501940160E070E084EB93E40E94182020E030E041EE55E435
:2033E0000E94CE2220E030E044EB53E40E9401210E947A210E94FC0587E293E0D2CC8AE03D
:20340000ECE5F7E0DE01A956BE4F01900D928A95E1F78AE0E2E5F7E0DE01A357BE4F019073
:203420000D928A95E1F76DE670E0CE0189569E4F0E9441066DE670E0CE0183579E4F0E94F4
:2034400041068AE0E8E4F7E0DE01A555BE4F01900D928A95E1F78AE0EEE3F7E0DE01AF5516
:20346000BE4F01900D928A95E1F768E770E0CE0185559E4F0E94410668E770E0CE018F55A8
:203480009E4F0E94410664E670E080E090E00E94FC0582E393E085CC20E030E040E850E4B4
:2034A0006091690470916A0480916B0490916C040E94C12218160CF008C38AE0ECE5F7E0A2
:2034C000DE01A159BE4F01900D928A95E1F78AE0E2E5F7E0DE01AB59BE4F01900D928A9598
:2034E000E1F76DE670E0CE0181599E4F0E9441066DE670E0CE018B599E4F0E9441068AE03C
:20350000E8E4F7E0DE01AD57BE4F01900D928A95E1F78AE0EEE3F7E0DE01A758BE4F019063
:203520000D928A95E1F768E770E0CE018D579E4F0E94410668E770E0CE0187589E4F0E94F1
:20354000410664E670E080E090E00E94FC058CE390E09093010280930002D12CC12C662489
:20356000639492E6792EA0910002B0910102A937B1050CF086C190913B07C75ADD4F98831A
:20358000C955D240903308F059C080913D07E8E5EE2EE2E0FE2EE81AF10887FDF394EE0CFB
:2035A000FF1CEE0CFF1C80913C0708E810E0081B110987FD1395000F111F000F111F1801A7
:2035C000012E000C44085508B7FF02C0B0E0A0E097010F2C000C440B550B2219330944092D
:2035E00055090E94DF1F24EB30E040E050E00E94B51FBA01A901420D531D641D751D40175A
:2036000051072CF087014E155F050CF48A0102501109000F111F2FB7F894C75ADD4FE88189
:20362000C955D2408E2F90E0FC01EE0FFF1FE80FF91FE35DF94F128301832FBF64E080E0D3
:203640000E94810A00E117E26092C3047092E5041092C4041092E60481E090E00E94F70956
:203660000E949707882321F083E592E00E94730A61E082E60E947E081092760480937504DC
:2036800081E296E00E945D09817099270150110929F485E493E00E94730A32C0892BA1F6D8
:2036A0006092C3047092E5041092C4041092E6048FE89FEF0E94F7090E949707882321F0CD
:2036C00083E592E00E94730A62E082E60E947E081092760480937504823090F081E296E06C
:2036E0000E945D09CB59DD4F8883C556D24081E296E00E945D09CA59DD4F8883C656D240D1
:203700000091000210910102B801012E000C880B990B0E94AB212BED3FE049E450E40E949F
:20372000CE2220E030E044E353E40E9401210E943B231B012C01CB59DD4FF881C556D24028
:203740006F2F70E0762F6627CA59DD4F2881C656D240620F711D072E000C880B990B0E940A
:20376000AB21A20191010E94CE221B012C0120E030E048E452E40E94F72087FF6CC080917F
:2037800067049091680483309105E4F4FC01EE0FFF1FEF59FB4F11830083181619060CF006
:2037A0006AC001501109FC01EE0FFF1FE15AFB4F208131810217130709F45DC01092680429
:2037C000109267048091670490916804039709F042C034E1C316D104F4F5C601880F991F7C
:2037E000880F991FFC01EF5EFB4F7F0120823182428253828C010B5E1B4F609165047091BD
:203800006604072E000C880B990B0E94AB21F8016083718382839383F7016081718182819F
:20382000938142E00E94EE0A83E593E00E94010AF801608171818281938142E00E94EE0A91
:2038400080E592E00E94010A1092680410926704F2E0CF0ED11C61E070E080E090E00E942A
:20386000FC0580910002909101020196909301028093000278CE0196909368048093670454
:20388000A1CF7090110460901204509013044090140421E134E0C75ADD4F39832883C955D6
:2038A000D240790110E000E0F70120803180C280D38020E030E0A901B101C6010E94F720E2
:2038C000882319F1272D362D452D542DB101C6010E94F7201816CCF0F70164817581868193
:2038E00097810E9473212B018B0142E0B101C6010E94EE0A85E793E00E94010AC2010E949C
:20390000D60A722C632C5C2C4D2CF8E0EF0EF11C21E634E02E153F0539F60115110509F4BD
:20392000A7C0B801012E000C880B990B97FF39C10E94520A83E993E00E94730A8AE0ECE52E
:20394000F7E0DE01A95BBE4F01900D928A95E1F78AE0E2E5F7E0DE01A35CBE4F01900D9256
:203960008A95E1F7CE01895B9E4F0E942F06CE01835C9E4F0E942F068AE0E8E4F7E0DE017B
:20398000A55ABE4F01900D928A95E1F78AE0EEE3F7E0DE01AF5ABE4F01900D928A95E1F7C6
:2039A000CE01855A9E4F0E942F06CE018F5A9E4F0E942F0664EF71E080E090E00E94FC0502
:2039C0000B3511050CF0F1C086EA93E00E94730A8AE0E2E5F7E0DE01AD5CBE4F01900D92B5
:2039E0008A95E1F78AE0EEE3F7E0DE01A75DBE4F01900D928A95E1F78AE0ECE5F7E0DE01B6
:203A0000A15EBE4F01900D928A95E1F78AE0E8E4F7E0DE01AB5EBE4F01900D928A95E1F74A
:203A200060E87FEFCE018D5C9E4F0E94410660E87FEFCE01875D9E4F0E94410660E870E06B
:203A4000CE01815E9E4F0E94410660E870E0CE018B5E9E4F0E94410684E1809FB001819F67
:203A6000700D1124072E000C880B990B0E94FC051092680410926704C75ADD4FE881F9812E
:203A8000C955D2401192119211921192C75ADD4FF983E883C955D240CB5ADD4F8881998192
:203AA000C555D2400E94D60ACB5ADD4F28813981C555D2402F5F3F4FCB5ADD4F39832883A4
:203AC000C555D24024313105B9F620E030E040E850E46091690470916A0480916B049091A6
:203AE0006C040E94C12218160CF072C120E030E044E353ECC501B4010E94F72087FFA0C0E4
:203B00008AE0E2E5F7E0DE01AD51BF4F01900D928A95E1F78AE0EEE3F7E0DE01A752BF4F93
:203B200001900D928A95E1F78AE0ECE5F7E0DE01A153BF4F01900D928A95E1F78AE0E8E40E
:203B4000F7E0DE01AB53BF4F01900D928A95E1F760E870E0CE018D519F4F0E94410660E818
:203B600070E0CE0187529F4F0E94410660E87FEFCE0181539F4F0E94410660E87FEFCE01C1
:203B80008B539F4F0E94410620E030E044EB53E4C501B4010E94192020E030E041EE55E42C
:203BA0000BC14AE00E940E0AC5CE80EB93E00E94730A8AE0E2E5F7E0DE01A55FBE4F01903C
:203BC0000D928A95E1F78AE0EEE3F7E0DE01AF5FBE4F01900D928A95E1F78AE0ECE5F7E00A
:203BE000DE01A950BF4F01900D928A95E1F78AE0E8E4F7E0DE01A351BF4F01900D928A957B
:203C0000E1F760E870E0CE01855F9E4F0E94410660E870E0CE018F5F9E4F0E94410660E838
:203C20007FEFCE0189509F4F0E94410660E87FEFCE0183519F4F0E9441060A5511090CCF13
:203C400020E030E044E353ECC501B4010E94C12287FD52C020E030E040EA50ECC501B40167
:203C60000E94F72087FF48C08AE0E2E5F7E0DE01A554BF4F01900D928A95E1F78AE0EEE3AD
:203C8000F7E0DE01AF54BF4F01900D928A95E1F78AE0ECE5F7E0DE01A955BF4F01900D9209
:203CA0008A95E1F78AE0E8E4F7E0DE01A356BF4F01900D928A95E1F760E87FEFCE01855495
:203CC0009F4F0E94410660E87FEFCE018F549F4F0E94410660E870E0CE0189559F4F0E94F9
:203CE000410660E870E0CE0183569F4F0E944106C501B4019F7750CF20E030E040EA50E448
:203D0000C501B4010E94C12218160CF065C020E030E044E353E4C501B4010E94F720181684
:203D20000CF45AC08AE0E2E5F7E0DE01AD56BF4F01900D928A95E1F78AE0EEE3F7E0DE0159
:203D4000A757BF4F01900D928A95E1F78AE0ECE5F7E0DE01A158BF4F01900D928A95E1F711
:203D60008AE0E8E4F7E0DE01AB58BF4F01900D928A95E1F760E870E0CE018D569F4F0E9445
:203D8000410660E870E0CE0187579F4F0E94410660E87FEFCE0181589F4F0E94410660E843
:203DA0007FEFCE018B589F4F0E94410620E030E041EE55E4C501B4010E94CE2220E030E077
:203DC00044EB53E40E9401210E947A210E94FC050E9448040C94941320E030E044E353E436
:203DE000C501B4010E94C12218160CF04DC08AE0E2E5F7E0DE01A559BF4F01900D928A954A
:203E0000E1F78AE0EEE3F7E0DE01AF59BF4F01900D928A95E1F78AE0ECE5F7E0DE01A95AA8
:203E2000BF4F01900D928A95E1F78AE0E8E4F7E0DE01A35BBF4F01900D928A95E1F760E8E6
:203E40007FEFCE0185599F4F0E94410660E87FEFCE018F599F4F0E94410660E870E0CE01C5
:203E6000895A9F4F0E94410660E870E0CE01835B9F4F0E944106A501940160E070E084EB32
:203E800093E40E94182088CE8AE0ECE5F7E0DE019F9601900D928A95E1F78AE0E2E5F7E026
:203EA000DE01959601900D928A95E1F76DE670E0CE018F960E9441066DE670E0CE018596C4
:203EC0000E9441068AE0E8E4F7E0DE01AD5BBF4F01900D928A95E1F78AE0EEE3F7E0DE01DF
:203EE000D99601900D928A95E1F768E770E0CE018D5B9F4F0E94410668E770E0CE01C99632
:203F00000E94410664E670E080E090E05FCFC0922D070C94A11410922D070C94A114FC011D
:203F200088279927E89421912032E9F3293010F02E30C8F32B3241F02D3239F4689404C06A
:203F40000E94AD1F820F911D219120532A30C0F31EF4909581959F4F08957AE0979F902D5D
:203F6000879F802D910D11240895052E97FB1EF400940E94CC1F57FD07D00E94E71F07FC30
:203F800003D04EF40C94CC1F50954095309521953F4F4F4F5F4F08959095809570956195A0
:203FA0007F4F8F4F9F4F08950E940920A59F900DB49F900DA49F800D911D11240895B7FF28
:203FC0000C94D41F0E94D41F821B930B0895A1E21A2EAA1BBB1BFD010DC0AA1FBB1FEE1F00
:203FE000FF1FA217B307E407F50720F0A21BB30BE40BF50B661F771F881F991F1A9469F747
:2040000060957095809590959B01AC01BD01CF010895A29FB001B39FC001A39F700D811D96
:204020001124911DB29F700D811D1124911D08955058BB27AA270E9430200C9473220E948D
:204040003A2238F00E94412220F039F49F3F19F426F40C9410220EF4E095E7FB0C940A229E
:20406000E92F0E94982258F3BA17620773078407950720F079F4A6F50C94BA220EF4E0959B
:204080000B2EBA2FA02D0B01B90190010C01CA01A0011124FF27591B99F0593F50F4503E9F
:2040A00068F11A16F040A22F232F342F4427585FF3CF469537952795A795F0405395C9F766
:2040C0007EF41F16BA0B620B730B840BBAF09150A1F0FF0FBB1F661F771F881FC2F70EC0AD
:2040E000BA0F621F731F841F48F4879577956795B795F7959E3F08F0B0CF9395880F08F0FE
:204100009927EE0F9795879508950E943A2260F080E891E009F49EEF0E94412228F040E807
:2041200051E071F45EEF0CC00C9410220C94BA22E92FE0780E94982240F3092E052AB1F379
:20414000261737074807590738F00E2E07F8E02569F0E025E0640AC0EF6307F8009407FA7B
:20416000DB01B9019D01DC01CA01AD01EF930E9418210E9473220E94C8205F91552339F006
:204180002BED3FE049E450FD49EC0C9419200895DF93DD27B92FBF7740E85FE3161617067C
:2041A00048075B0718F4D92F0E94C6229F938F937F936F930E948923E4EEF0E00E94132281
:2041C0000E9473222F913F914F915F910E94E122DD2351F09058A2EA2AED3FE049EC5FE341
:2041E000D0785D270E943020DF910C9473220E94E62108F481E008950E944A22E3950C9493
:2042000084220E9415210C9473220E94412258F00E943A2240F029F45F3F29F00C940A22D0
:2042200051110C94BB220C9410220E94982268F39923B1F3552391F3951B550BBB27AA27F7
:2042400062177307840738F09F5F5F4F220F331F441FAA1FA9F335D00E2E3AF0E0E832D08C
:2042600091505040E695001CCAF72BD0FE2F29D0660F771F881FBB1F261737074807AB074C
:20428000B0E809F0BB0B802DBF01FF2793585F4F3AF09E3F510578F00C940A220C94BB228D
:2042A0005F3FE4F3983ED4F3869577956795B795F7959F5FC9F7880F911D9695879597F917
:2042C0000895E1E0660F771F881FBB1F621773078407BA0720F0621B730B840BBA0BEE1F49
:2042E00088F7E09508950E947A216894B1110C94BB2208950E94A02288F09F5798F0B92FD6
:204300009927B751B0F0E1F0660F771F881F991F1AF0BA95C9F714C0B13091F00E94BA222D
:20432000B1E008950C94BA22672F782F8827B85F39F0B93FCCF3869577956795B395D9F7B5
:204340003EF490958095709561957F4F8F4F9F4F0895E89409C097FB3EF490958095709577
:2043600061957F4F8F4F9F4F9923A9F0F92F96E9BB279395F695879577956795B795F111AA
:20438000F8CFFAF4BB0F11F460FF1BC06F5F7F4F8F4F9F4F16C0882311F096E911C077238B
:2043A00021F09EE8872F762F05C0662371F096E8862F70E060E02AF09A95660F771F881F9E
:2043C000DAF7880F9695879597F90895990F0008550FAA0BE0E8FEEF16161706E807F9074B
:2043E000C0F012161306E407F50798F0621B730B840B950B39F40A2661F0232B242B252B98
:2044000021F408950A2609F4A140A6958FEF811D811D089597F99F6780E870E060E008951F
:204420009FEF80EC0895DF93CF931F930F93FF92EF92DF927B018C01689406C0DA2EEF0177
:204440000E94E122FE01E894A5912591359145915591A6F3EF010E943020FE019701A80113
:20446000DA9469F7DF90EF90FF900F911F91CF91DF91089500240A941616170618060906FC
:20448000089500240A94121613061406050608950C9410220E94A022D8F3E894E0E0BB279B
:2044A0009F57F0F02AED3FE049EC06C0EE0FBB0F661F771F881F28F0B23A620773078407FA
:2044C00028F0B25A620B730B840BE3959A9572F7803830F49A95BB0F661F771F881FD2F7CE
:2044E00090480C949423092E0394000C11F4882352F0BB0F40F4BF2B11F460FF04C06F5FE3
:204500007F4F8F4F9F4F0895EF93E0FF07C0A2EA2AED3FE049EC5FEB0E9430200E947322D2
:204520000F90039401FC9058E1E1F1E00C94A72357FD9058440F551F59F05F3F71F047953C
:20454000880F97FB991F61F09F3F79F087950895121613061406551FF2CF4695F1DF08C026
:20456000161617061806991FF1CF86957105610508940895E894BB2766277727CB0197F947
:2045800008950E94E62108F48FEF08959B01AC0160E070E080E89FE30C9401210E94E12294
:2045A0000C9473220E943A2238F00E94412220F0952311F00C940A220C94102211240C945F
:2045C000BB220E94982270F3959FC1F3950F50E0551F629FF001729FBB27F00DB11D639F5D
:2045E000AA27F00DB11DAA1F649F6627B00DA11D661F829F2227B00DA11D621F739FB00D91
:20460000A11D621F839FA00D611D221F749F3327A00D611D231F849F600D211D822F762FCF
:204620006A2F11249F5750409AF0F1F088234AF0EE0FFF1FBB1F661F771F881F91505040AE
:20464000A9F79E3F510580F00C940A220C94BB225F3FE4F3983ED4F3869577956795B7954D
:20466000F795E7959F5FC1F7FE2B880F911D9695879597F908959F930E944A220F9007FCB8
:20468000EE5F0C94842219F416F40C9410220C9492230E94A022B8F39923C9F3B6F39F5723
:2046A000550B87FF0E94A0230024A0E640EA900180585695979528F4805C660F771F881FB1
:2046C00020F026173707480730F4621B730B840B202931294A2BA69517940794202531251E
:2046E0004A2758F7660F771F881F20F026173707480730F4620B730B840B200D311D411DF7
:20470000A09581F7B901842F9158880F9695879508959B01AC010C94CE220E94E621880B06
:20472000990B08959F3F31F0915020F4879577956795B795880F911D9695879597F908951B
:2047400091505040660F771F881FD2F708959F938F937F936F93FF93EF939B01AC010E9469
:20476000CE22EF91FF910E9413222F913F914F915F910C94CE22DB018F939F930E94D41FAD
:20478000BF91AF91A29F800D911DA39F900DB29F900D11240895991B79E004C0991F961738
:2047A00008F0961B881F7A95C9F780950895EE0FFF1F881F8BBF0790F691E02D19940F93A2
:2047C0001F93CF93DF938230910510F482E090E0E0916807F091690730E020E0B0E0A0E044
:2047E000309799F42115310509F44AC0281B390B24303105D8F58A819B816115710589F187
:20480000FB0193838283FE0111C0408151810281138148175907E0F04817590799F4109785
:2048200061F012960C93129713961C933296CF01DF91CF911F910F910895009368071093E5
:204840006907F4CF2115310551F04217530738F0A901DB019A01BD01DF01F801C1CFEF0165
:20486000F9CF9093690780936807CDCFFE01E20FF31F819391932250310939832883D7CFCC
:204880002091660730916707232B41F42091040230910502309367072093660720910202C3
:2048A000309103022115310541F42DB73EB74091060250910702241B350BE0916607F09117
:2048C0006707E217F307A0F42E1B3F0B2817390778F0AC014E5F5F4F2417350748F04E0F55
:2048E0005F1F5093670740936607819391939FCFF0E0E0E09CCFCF93DF930097E9F0FC01C7
:20490000329713821282A0916807B0916907ED0130E020E01097A1F420813181820F931F84
:2049200020916607309167072817390709F061C0F0936707E0936607DF91CF910895EA0168
:20494000CE17DF07E8F54A815B819E0141155105B1F7E901FB83EA8349915991C40FD51FB5
:20496000EC17FD0761F4808191810296840F951FE90199838883828193819B838A83F0E0C6
:20498000E0E012968D919C9113970097B9F52D913C911197CD010296820F931F209166077B
:2049A000309167072817390739F6309751F51092690710926807B0936707A0936607BCCF0E
:2049C000D383C28340815181840F951FC817D90761F44E5F5F4F88819981480F591F51832D
:2049E00040838A819B81938382832115310509F0B0CFF0936907E09368079ECFFD01DC01B1
:204A0000C0CF13821282D7CFFB01DC014150504048F001900D920020C9F701C01D924150F5
:204A20005040E0F70895F894FFCF3C0000006A0780001F00EDFFEAFF3102890124FF000017
:204A400000000200E803430300000000DB033B0368032804990377038B03000000009D0926
:204A60007009FC094D0932035D094E0900000000FF09020C000A040CD60C0D0A003E206E7B
:204A800061636B006E616E00696E66006F766600424E4F303535005468652047505320520C
:204AA00065636569766564205369676E616C3A004F7269656E746174696F6E2053656E7324
:204AC0006F722043616C6962726174696F6E004F6F6F70732C206E6F20424E4F303535207B
:204AE0006465746563746564202E2E2E20436865636B20796F757220776972696E67206F9E
:204B00007220493243204144445221004750524D4300475047474100506F736974696F6EB5
:204B20003A20004C617469747564653A200052696768743A203C2D313830006C6566742060
:204B40003C202D35007269676874203C3D313830006C656674203E20313830006C617374D1
:204B600020676F696E6720666F7277617264003E2072656164206661696C656400203A20F3
:204B800063757272656E7420646973743B2070726576696F757320616E676C653A200020C5
:204BA0003A206D696E20646973743B2070726576696F757320616E676C653A2000203A20B0
:204BC000646574656374656420646567726565007475726E206C656674007475726E207218
:204BE000696768740000FFFFFFFFFFFFFFFFFFFFFFFFFFFFFFFFFFFFFFFFFFFFFFFFFFFF23
:204C0000FFFFFFFFFFFFFFFFFFFFFFFFFFFFFFFFFFFFFFFFFFFFFFFFFFFFFFFFFFFFFFFFB4
:204C2000FFFFFFFFFFFFFFFFFFFFFFFFFFFFFFFFFFFFFFFFFFFFFFFFFFFFFFFFFFFFFFFF94
:204C4000FFFFFFFFFFFFFFFFFFFFFFFFFFFFFFFFFFFFFFFFFFFFFFFFFFFFFFFFFFFFFFFF74
:204C6000FFFFFFFFFFFFFFFFFFFFFFFFFFFFFFFFFFFFFFFFFFFFFFFFFFFFFFFFFFFFFFFF54
:020000040003F7
:20E000000D9489F10D94B2F10D94B2F10D94B2F10D94B2F10D94B2F10D94B2F10D94B2F109
:20E020000D94B2F10D94B2F10D94B2F10D94B2F10D94B2F10D94B2F10D94B2F10D94B2F1C0
:20E040000D94B2F10D94B2F10D94B2F10D94B2F10D94B2F10D94B2F10D94B2F10D94B2F1A0
:20E060000D94B2F10D94B2F10D94B2F10D94B2F10D94B2F10D94B2F10D94B2F10D94B2F180
:20E080000D94B2F10D94B2F10D94B2F10D94B2F10D94B2F10D94B2F10D94B2F10D94B2F160
:20E0A0000D94B2F10D94B2F10D94B2F10D94B2F10D94B2F10D94B2F10D94B2F10D94B2F140
:20E0C0000D94B2F10D94B2F10D94B2F10D94B2F10D94B2F10D94B2F10D94B2F10D94B2F120
:20E0E0000D94B2F141546D656761323536300041726475696E6F206578706C6F726572205D
:20E1000073746B3530305632206279204D4C5300426F6F746C6F616465723E004875683FDC
:20E1200000436F6D70696C6564206F6E203D20004350552054797065202020203D20005F52
:20E140005F4156525F415243485F5F3D2000415652204C696243205665723D200047434305
:20E160002056657273696F6E203D20004350552049442020202020203D20004C6F772066B2
:20E18000757365202020203D20004869676820667573652020203D200045787420667573A6
:20E1A00065202020203D20004C6F636B20667573652020203D20004D6172202037203230EB
:20E1C000313300312E362E3800342E332E35005623202020414444522020206F7020636FC3
:20E1E00064652020202020696E737472756374696F6E2061646472202020496E7465727265
:20E20000757074006E6F20766563746F7200726A6D702020006A6D70200057686174207091
:20E220006F72743A00506F7274206E6F7420737570706F72746564004D7573742062652083
:20E2400061206C65747465720020005772697474696E672045450052656164696E6720456C
:20E26000450045452065727220636E743D00504F525400303D5A65726F2061646472003F78
:20E280003D43505520737461747300403D454550524F4D207465737400423D426C696E6B76
:20E2A000204C454400453D44756D7020454550524F4D00463D44756D7020464C41534800C2
:20E2C000483D48656C70004C3D4C69737420492F4F20506F72747300513D51756974005269
:20E2E0003D44756D702052414D00563D73686F7720696E7465727275707420566563746FC9
:20E30000727300593D506F727420626C696E6B002A0011241FBECFEFD1E2DEBFCDBF01E0F6
:20E320000CBF12E0A0E0B2E0EEE1FDEF03E00BBF02C007900D92A030B107D9F712E0A0E0E4
:20E34000B2E001C01D92AE30B107E1F70F9460F30D948DFE01E20EBF0FEF0DBF11241FBE9F
:20E360000D9460F30D9400F020E030E040ED57E005C0FA013197F1F72F5F3F4F2817390799
:20E38000C0F308959C01260F311DC901A0E0B0E02F5F3F4FABBFFC018791882361F0809389
:20E3A000C6008091C00086FFFCCF8091C00080648093C000EACF08958DE08093C600809141
:20E3C000C00086FFFCCF8091C00080648093C0008AE08093C6008091C00086FFFCCF809130
:20E3E000C00080648093C00008950F94C2F10F94DCF10895FC019081992359F09093C600AA
:20E400008091C00086FFFCCF8091C00080648093C0003196992379F70895282F982F92957E
:20E420009F70892F805D8A3308F0895F8093C6008091C00086FFFCCF8091C00080648093D9
:20E44000C000822F8F70982F905D9A3308F0995F9093C6008091C00086FFFCCF8091C00000
:20E4600080648093C00008959C01FB01853691051CF46330710594F0C90164E670E00F94BA
:20E480002EFE605D7F4F6093C6008091C00086FFFCCF8091C00080648093C0002B303105D2
:20E4A00014F43297B4F0C90164E670E00F942EFE6AE070E00F942EFE605D7F4F6093C60007
:20E4C0008091C00086FFFCCF8091C00080648093C000C9016AE070E00F942EFEC0968093F7
:20E4E000C6008091C00086FFFCCF8091C00080648093C00008951F93182F8EE692EE60E0E3
:20E500000F94C2F11093C6008091C00086FFFCCF8091C00080648093C0000F94DCF11F9173
:20E5200008952F923F924F925F926F927F928F929F92AF92BF92CF92DF92EF92FF920F935E
:20E540001F93DF93CF93CDB7DEB762970FB6F894DEBF0FBECDBF382E622ECA01DB015C01E2
:20E560006D01772420E2222E2E010894411C511C8BC081E0A81680E0B80681E0C80680E094
:20E58000D80628F0C601AA27BB270F940DF2BB27AD2D9C2D8B2D0F940DF28A2D0F940DF231
:20E5A0002092C6008091C00086FFFCCF8091C00080648093C0009DE29093C6008091C00001
:20E5C00086FFFCCF8091C00080648093C0002092C6008091C00086FFFCCF8091C000806415
:20E5E0008093C00019828601750188249924A1E03A1651F03A1620F0B2E03B1661F409C0D4
:20E600000BBFF701779007C0C7010F9477FE782E02C0F7017080872D0F940DF22092C6006C
:20E620008091C00086FFFCCF8091C00080648093C000872D8052F401EF70F0708F3520F41F
:20E64000E40DF51D708204C0E40DF51D8EE280830894E11CF11C011D111D0894811C911CB3
:20E6600090E18916910409F0C2CF80E190E0A0E0B0E0A80EB91ECA1EDB1E198AC2010F9413
:20E68000FAF10F94DCF16A94662009F072CF62960FB6F894DEBF0FBECDBFCF91DF911F91A2
:20E6A0000F91FF90EF90DF90CF90BF90AF909F908F907F906F905F904F903F902F900895FB
:20E6C0002F923F924F925F926F927F928F929F92AF92BF92CF92DF92EF92FF920F931F93A8
:20E6E000DF93CF93CDB7DEB7CD53D1400FB6F894DEBF0FBECDBF01E20EBF0FEF0DBF94B7F0
:20E70000F894A89514BE8091600088618093600010926000789493FF05C0E0910002F09138
:20E7200001021995279A2F9A8091C00082608093C00080E18093C40088E18093C1000000A3
:20E74000EE24FF24870144E0A42EB12CCC24DD2424C0C5010197F1F70894E11CF11C011D4A
:20E76000111D21E2E2162EE4F20620E0020720E0120718F031E0C32ED12CC801B70127ECA9
:20E780003BE140E050E00F9441FE611571058105910519F485B1805885B98091C00087FD75
:20E7A00003C0C114D104A9F2A6014F5F5F4FC25EDE4F59834883CE51D140C25EDE4F8881D4
:20E7C0009981CE51D140019711F00D9410FEC05DDE4F19821882C053D14060E0C15DDE4F79
:20E7E0001882CF52D14088249924C35DDE4F19821882CD52D140C05EDE4F188219821A8216
:20E800001B82C052D140CE5CDE4F188219821A821B82C253D140EE24FF2487010BBFF701CE
:20E8200007911691C45CDE4F19830883CC53D1400D940BFEC25EDE4F28813981CE51D1406B
:20E840002130310509F52091C600C25EDE4F19821882CE51D14022C02F5F3F4F4F4F5F4FC0
:20E86000213082E138078AE7480780E0580780F0C45CDE4FE881F981CC53D140EF5FFF4FBA
:20E8800019F0EE27FF27099420E030E040E050E08091C00087FFE0CF2091C600C35DDE4F6D
:20E8A00048815981CD52D1404F5F5F4FC35DDE4F59834883CD52D140213209F063C64A3016
:20E8C000510508F05FC60894811C911C53E08516910409F059C600E010E018C081E2809346
:20E8E000C6008091C00086FFFCCF8091C00080648093C0002F5F3F4F2931310579F70F94EA
:20E90000DCF10F5F1F4F0530110519F020E030E0E5CF10920A0210920B0210920C02109287
:20E920000D0210920602109207021092080210920902109202021092030210920402109283
:20E9400005028FEE90EE60E00F94F5F180E191EE60E00F94C2F18091C00087FFFCCF909133
:20E96000C600903608F09F759032B8F09093C6008091C00086FFFCCF8091C00080648093C3
:20E98000C000A0E2A093C6008091C00086FFFCCF8091C00080648093C000983409F4D7C132
:20E9A0009934B8F4923409F459C1933458F4903319F1903308F4E3C59F33A1F1903409F099
:20E9C000DEC5BDC0953409F470C1963409F0D7C598C1923509F42BC2933538F49C3409F4F6
:20E9E000F5C1913509F0CBC518C2963509F445C2993509F0C4C567C483E792EE62E00F941F
:20EA0000F5F11092060210920702109208021092090210920A0210920B0210920C021092B3
:20EA20000D0213C18FE792EE62E00F94F5F18FEE90EE60E00F94F5F181E291EE60E00F94A9
:20EA4000C2F187EB91EE60E00F94F5F180E391EE60E00F94C2F184EE90EE60E00F94F5F118
:20EA60008FE391EE60E00F94C2F186E090E061E070E00F9434F20F94DCF18DE591EE60E03E
:20EA80000F94C2F189EC91EE60E00F94F5F18EE491EE60E00F94C2F183EC91EE60E00F940B
:20EAA000F5F18CE691EE60E00F94C2F18EE10F940DF288E90F940DF281E00F940DF20F941F
:20EAC000DCF18BE791EE60E00F94C2F119E0E0E0F0E010935700E4918E2F0F940DF20F94E8
:20EAE000DCF18AE891EE60E00F94C2F1E3E0F0E010935700E4918E2F0F940DF20F94DCF1F1
:20EB000089E991EE60E00F94C2F1E2E0F0E010935700E4918E2F0F940DF20F94DCF188EA2C
:20EB200091EE60E00F94C2F1E1E0F0E0109357001491812F0F940DF20F94DCF107CF8BE885
:20EB400092EE62E00F94F5F18BE492EE60E00F94F5F10F94DCF100E010E019C0C8016F2D34
:20EB60000F947FFEFF2031F489E492EE60E00F94C2F10BC0F092C6008091C00086FFFCCF7A
:20EB80008091C00080648093C0000F5F1F4FC80181519F41A0E0B0E0ABBFFC01F790BAE2FC
:20EBA000FB1621F0E2E000301E07C1F60F94DCF10F94DCF187E592EE60E00F94F5F10F942D
:20EBC000DCF1CC24DD2400E010E01EC0C8010F9477FEF82E882331F489E492EE60E00F9422
:20EBE000C2F10BC08093C6008091C00086FFFCCF8091C00080648093C000FE1419F008945E
:20EC0000C11CD11C0F5F1F4FC80181519F41A0E0B0E0ABBFFC01E790FAE2EF1621F022E0F1
:20EC20000030120799F60F94DCF10F94DCF182E692EE60E00F94C2F1C60161E070E00F94A3
:20EC400034F20F94DCF10F94DCF11092020210920302109204021092050278CE89E992EED8
:20EC600062E00F94F5F1279A2F9A16C02F9880E090E0E0EDF7E03197F1F701968436910597
:20EC8000C1F72F9A80E090E0E0EDF7E03197F1F7019684369105C1F78091C00087FFE6CF24
:20ECA0008091C00087FFFCCF64C485EA92EE62E00F94F5F14091020250910302609104029E
:20ECC0007091050281E020E10F9491F28091020290910302A0910402B091050280509F4F2C
:20ECE000AF4FBF4F8093020290930302A0930402B093050280509041A040B04008F426CEE5
:20ED0000A4CF83EB92EE62E00F94F5F14091060250910702609108027091090280E020E19C
:20ED20000F9491F28091060290910702A0910802B091090280509F4FAF4FBF4F80930602FE
:20ED400090930702A0930802B0930902FFCD80EC92EE62E00F94F5F183E792EE60E00F94AC
:20ED6000F5F18FE792EE60E00F94F5F18BE892EE60E00F94F5F189E992EE60E00F94F5F177
:20ED800085EA92EE60E00F94F5F183EB92EE60E00F94F5F180EC92EE60E00F94F5F187ECDC
:20EDA00092EE60E00F94F5F188ED92EE60E00F94F5F18FED92EE60E00F94F5F18AEE92EE8F
:20EDC00060E00F94F5F183E093EEBDCD87EC92EE62E00F94F5F181E40F947BF282E40F94C0
:20EDE0007BF283E40F947BF284E40F947BF285E40F947BF286E40F947BF287E40F947BF249
:20EE000088E40F947BF28AE40F947BF28BE40F947BF28CE40F947BF299CD88ED92EE62E05C
:20EE20000F94F5F1772473948824992409C48FED92EE62E00F94F5F140910A0250910B02DF
:20EE400060910C0270910D0282E020E10F9491F280910A0290910B02A0910C02B0910D0240
:20EE600080509F4FAF4FBF4F80930A0290930B02A0930C02B0930D0269CD8AEE92EE62E076
:20EE80000F94F5F184EE90EE60E00F94F5F18FEC91EE60E00F94F5F1662477244301CC5DDB
:20EEA000DE4F19821882C452D140D401C301B695A79597958795CA5DDE4F88839983AA83B9
:20EEC000BB83C652D140CC5DDE4FA881B981C452D1401196CC5DDE4FB983A883C452D14060
:20EEE000CD0162E070E00F9434F2B0E2B093C6008091C00086FFFCCF8091C0008064809365
:20EF0000C000EDE2E093C6008091C00086FFFCCF8091C00080648093C000F0E2F093C60065
:20EF20008091C00086FFFCCF8091C00080648093C000CA5DDE4FE880F9800A811B81C652B4
:20EF4000D140BB27A12F902F8F2D0F940DF2CA5DDE4F8881C652D1400F940DF2B0E2FB2EEE
:20EF6000F092C6008091C00086FFFCCF8091C00080648093C0000DE30093C6008091C00086
:20EF800086FFFCCF8091C00080648093C00010E21093C6008091C00086FFFCCF8091C0004C
:20EFA00080648093C0008BBEF3012791C65DDE4F2883CA52D140A22EBB24CC24DD24089441
:20EFC000611C711C811C911C8BBEF3018791282E3324442455240894611C711C811C911C0A
:20EFE0008BBEF3013791C55DDE4F3883CB52D1400894611C711C811C911C8BBEF3014791CF
:20F00000C45DDE4F4883CC52D140ADEFEA2EAFEFFA2EAFEF0A2FAFEF1A2F6E0C7F1C801EBD
:20F02000911E142D032DF22CEE24EA0CFB1C0C1D1D1D0F940DF220E22093C6008091C00022
:20F0400086FFFCCF8091C00080648093C000C65DDE4F8881CA52D1400F940DF230E23093DB
:20F06000C6008091C00086FFFCCF8091C00080648093C000C45DDE4F8881CC52D1400F94F8
:20F080000DF240E24093C6008091C00086FFFCCF8091C00080648093C000C55DDE4F8881B5
:20F0A000CB52D1400F940DF250E25093C6008091C00086FFFCCF8091C00080648093C000FC
:20F0C0008FEFE8168FEFF80680E0080780E0180731F484E092EE60E00F94C2F1DFC0D80133
:20F0E000C7018070907CA070B0708050904CA040B040D1F52FEF3FE340E050E0E222F32231
:20F1000004231523CA5DDE4FA880B980CA80DB80C652D140AE0CBF1CC01ED11EAA0CBB1C1E
:20F12000CC1CDD1C8EE092EE60E00F94C2F1BB27A12F902F8F2D0F940DF28E2D0F940DF23E
:20F1400030E23093C6008091C00086FFFCCF8091C00080648093C0004EE34093C600809190
:20F16000C00086FFFCCF87C08EE09EEFA0E0B0E0E822F9220A231B239CE0E91694E9F906A6
:20F1800090E0090790E0190709F088C0C45DDE4FA881CC52D140EA2EFF2400E010E0102F2E
:20F1A0000F2DFE2CEE24C55DDE4FB881CB52D140EB0EF11C011D111DD601C5018170907041
:20F1C000A070B070DC0199278827E80EF91E0A1F1B1F20EF30E040E050E0A222B322C42255
:20F1E000D52241E1AA0CBB1CCC1CDD1C4A95D1F7EA0CFB1C0C1D1D1D81E090E0A0E0B0E090
:20F20000282239224A225B2235E1220C331C441C551C3A95D1F7E20CF31C041D151D5701BD
:20F220006801AA0CBB1CCC1CDD1C85E192EE60E00F94C2F1C801AA27BB270F940DF2BB277B
:20F24000A12F902F8F2D0F940DF28E2D0F940DF290E29093C6008091C00086FFFCCF8091D7
:20F26000C00080648093C000AEE3A093C6008091C00086FFFCCF8091C00080648093C000E4
:20F28000C601AA27BB270F940DF2BB27AD2D9C2D8B2D0F940DF28A2D0F940DF20F94DCF1AA
:20F2A000CC5DDE4FE881F981C452D140F99709F44DCBF4E0EF2EF12C012D112D6E0C7F1CBA
:20F2C000801E911EF2CD83E093EE62E00F94F5F18AE192EE60E00F94C2F18091C00087FF9B
:20F2E000FCCF1091C6001F751093C6008091C00086FFFCCF8091C00080648093C0000F9493
:20F30000DCF1812F81548A3108F036C1163409F495C0173490F4133409F44EC0143430F4C8
:20F320001134F1F0123409F01DC130C0143409F459C0153409F016C16BC01A3409F4C4C029
:20F340001B3438F4173409F48FC0183409F00AC1A1C01B3409F4D2C01C3409F003C1E8C097
:20F360008FEF81B90DC082B1809582B980E090E0E0EDF7E03197F1F70196883C9105C1F7B8
:20F380008091C00087FFEFCF12B8EFC08FEF84B90DC085B1809585B980E090E0E0EDF7E05A
:20F3A0003197F1F70196883C9105C1F78091C00087FFEFCF15B8D9C08FEF87B90DC088B1B5
:20F3C000809588B980E090E0E0EDF7E03197F1F70196883C9105C1F78091C00087FFEFCFF5
:20F3E00018B8C3C08FEF8AB90DC08BB180958BB980E090E0E0EDF7E03197F1F70196883C18
:20F400009105C1F78091C00087FFEFCF1BB8ADC08FEF8DB90DC08EB180958EB980E090E04D
:20F42000E0EDF7E03197F1F70196883C9105C1F78091C00087FFEFCF1EB897C08FEF80BBD4
:20F440000DC081B3809581BB80E090E0E0EDF7E03197F1F70196883C9105C1F78091C000BC
:20F4600087FFEFCF11BA81C08FEF83BB0DC084B3809584BB80E090E0E0EDF7E03197F1F704
:20F480000196883C9105C1F78091C00087FFEFCF14BA6BC08FEF809301010FC0809102013F
:20F4A00080958093020180E090E0E0EDF7E03197F1F70196883C9105C1F78091C00087FFFD
:20F4C000EDCF1092020151C08FEF809304010FC08091050180958093050180E090E0E0ED73
:20F4E000F7E03197F1F70196883C9105C1F78091C00087FFEDCF1092050137C08FEF809399
:20F5000007010FC08091080180958093080180E090E0E0EDF7E03197F1F70196883C9105B4
:20F52000C1F78091C00087FFEDCF109208011DC08FEF80930A010FC080910B0180958093C8
:20F540000B0180E090E0E0EDF7E03197F1F70196883C9105C1F78091C00087FFEDCF10921D
:20F560000B0103C085E292EEEEC98091C00087FFFCCF8091C600EAC988E392EEE4C98CE16D
:20F5800091EEE1C988249924933011F1943028F4913089F09230B8F408C0953061F19530E8
:20F5A000F0F0963009F048C043C02B3109F042C991E06BE13FC96227C15DDE4F2883CF52DC
:20F5C000D14092E037C9B22FA0E0622793E032C9822F90E0A82BB92B622794E02BC92E3029
:20F5E00009F039C3622795E0C05DDE4F19821882C053D1401FC9E1E0F0E0EC0FFD1FC05DC8
:20F60000DE4F08811981C053D140E00FF11F20830F5F1F4FC05DDE4F19830883C053D14063
:20F6200062270A171B0709F005C9D80196E002C9261709F010C303C0973009F0FBC8772433
:20F640009981933109F412C19431C8F4963009F4D8C0973050F4923009F406C1933009F4CF
:20F660006DC0913009F059C253C0913109F477C0923108F0BBC0903109F04FC2F5C0983100
:20F6800009F487C0993150F4953109F4EFC0953108F4C6C1963109F040C2C2C19A3109F450
:20F6A0006CC09A3108F491C09B3109F45BC09D3109F033C29D81903359F48F81882311F478
:20F6C0009EE11CC0813011F091E018C098E916C0892F807591F0903539F4E0E0F0E089E064
:20F6E0008093570094910AC0983539F4E3E0F0E089E080935700949101C090E01A821B82C2
:20F700008D818C831D829E831F8227E030E009C21A8288E08B8381E48C8386E58D8382E521
:20F720008E8389E48F8383E5888780E589878FE58A8782E38B872BE030E0F3C18A818139BD
:20F7400041F0823941F0803911F48FE005C080E003C082E001C08AE01A828B8344C07724A1
:20F76000739482C08D81882311F48EE12CC0813011F081E028C088E926C01A82E1E0F0E0A8
:20F7800089E08093570084918B831C8224E030E0C8C18B81803589F48C81883039F4E2E046
:20F7A000F0E089E08093570084910DC0E0E0F0E089E080935700849106C0E3E0F0E089E08A
:20F7C0008093570084911A82DFCF8D81836C99E0E1E0F0E0082E90935700E89507B600FC73
:20F7E000FDCF1A821B8223E030E09BC180EC8A83CE5CDE4F188219821A821B82C253D14031
:20F800008EC18A8190E0A0E0B0E0582F4427332722278B8190E0A0E0B0E0DC0199278827A1
:20F82000282B392B4A2B5B2B8D8190E0A0E0B0E0282B392B4A2B5B2B8C8190E0A0E0B0E049
:20F84000BA2FA92F982F8827282B392B4A2B5B2B220F331F441F551FC05EDE4F28833983B3
:20F860004A835B83C052D1401A8259C13A81C95CDE4F3883C753D140CA5CDE4F1882C6530B
:20F88000D1408B81C82EDD24CA5CDE4F48815981C653D140C42AD52A933109F082C0CE5C1E
:20F8A000DE4F88819981AA81BB81C253D1408050904CA340B04030F583E0CE5CDE4FE880A5
:20F8C000F9800A811B81C253D140F70100935B0080935700E89507B600FCFDCFCE5CDE4FB9
:20F8E000088119812A813B81C253D14000501F4F2F4F3F4FCE5CDE4F088319832A833B83A5
:20F90000C253D140C05EDE4F488159816A817B81C052D140DE011B9631E08C9111962C91A7
:20F9200011971296C75CDE4F2883C953D140C85CDE4F1882C853D14090E0C85CDE4FE8810E
:20F94000F981C853D1408E2B9F2B0C01FA0160935B0030935700E89511244E5F5F4F6F4F43
:20F960007F4F0EEFE02E0FEFF02ECE0CDF1CC114D10499F685E0C05EDE4F088119812A8106
:20F980003B81C052D140F80120935B0080935700E89507B600FCFDCF81E180935700E895CC
:20F9A00035C0C05EDE4F88819981AA81BB81C052D140B695A795979587957C018601ABE0FC
:20F9C000AA2EB12CAC0EBD1E0BC0D5016D915D01C7010F947FFE0894E11CF11C01501040B1
:20F9E0000115110591F7A60160E070E0440F551F661F771FC05EDE4FE880F9800A811B81E7
:20FA0000C052D1404E0D5F1D601F711F1A82C05EDE4F488359836A837B83C052D1407FC002
:20FA2000FA80C55CDE4FF882CB53D140C65CDE4F1882CA53D1408B81C82EDD24C65CDE4FEC
:20FA400008811981CA53D140C02AD12A1A828981BE016D5F7F4F843121F59601C05EDE4FC4
:20FA6000E880F9800A811B81C052D1400BBFF70187919691DB018C9311969C936E5F7F4FEE
:20FA8000D801C7010296A11DB11DC05EDE4F88839983AA83BB83C052D14022503040F1F6D8
:20FAA00036C0C05EDE4F288139814A815B81C052D1400894C108D108760100E010E00894B7
:20FAC000C11CD11C0894E11CF11C011D111DE20EF31E041F151F21BDBB27A52F942F832F09
:20FAE00082BD2F5F3F4F4F4F5F4FF89A80B5DB018D93BD012E153F054007510761F7C05E42
:20FB0000DE4F288339834A835B83C052D14096012D5F3F4FFB01108204C080EC8A8322E005
:20FB200030E08BE18093C6008091C00086FFFCCF8091C00080648093C000C15DDE4FF88103
:20FB4000CF52D140F093C6008091C00086FFFCCF8091C00080648093C000432F3093C60086
:20FB60008091C00086FFFCCF8091C00080648093C000922F2093C6008091C00086FFFCCF81
:20FB80008091C00080648093C0008EE08093C6008091C00086FFFCCF8091C00080648093AD
:20FBA000C00065E1C15DDE4FE880CF52D1406E2569276427FE01319610C090819093C6001C
:20FBC0008091C00086FFFCCF31968091C00080648093C0006927215030402115310569F778
:20FBE0006093C6008091C00086FFFCCF8091C00080648093C00085B1805885B9772081F44B
:20FC0000C15DDE4F0881CF52D1400F5FC15DDE4F0883CF52D14090E0A0E0B0E00D941AF439
:20FC200027982F9880E090E020ED37E0F9013197F1F7019684369105C9F700008091C00028
:20FC40008D7F8093C00081E180935700E895EE27FF270994FFCF90E00D941AF497FB092EEE
:20FC600007260AD077FD04D02ED006D000201AF4709561957F4F0895F6F7909581959F4FB7
:20FC80000895A1E21A2EAA1BBB1BFD010DC0AA1FBB1FEE1FFF1FA217B307E407F50720F05E
